{
  "contractName": "MyContract",
  "abi": [
    {
      "inputs": [
        {
          "internalType": "address",
          "name": "",
          "type": "address"
        }
      ],
      "name": "balances",
      "outputs": [
        {
          "internalType": "uint256",
          "name": "",
          "type": "uint256"
        }
      ],
      "stateMutability": "view",
      "type": "function",
      "constant": true
    },
    {
      "inputs": [],
      "name": "deposit",
      "outputs": [],
      "stateMutability": "payable",
      "type": "function",
      "payable": true
    },
    {
      "inputs": [],
      "name": "retrieveTokens",
      "outputs": [],
      "stateMutability": "nonpayable",
      "type": "function"
    }
  ],
  "bytecode": "0x608060405234801561001057600080fd5b50610343806100206000396000f3fe6080604052600436106100345760003560e01c806327e235e314610039578063600d700314610076578063d0e30db01461008d575b600080fd5b34801561004557600080fd5b50610060600480360381019061005b91906101d9565b610097565b60405161006d9190610215565b60405180910390f35b34801561008257600080fd5b5061008b6100af565b005b61009561016d565b005b60006020528060005260406000206000915090505481565b60003373ffffffffffffffffffffffffffffffffffffffff166108fc6000803373ffffffffffffffffffffffffffffffffffffffff1673ffffffffffffffffffffffffffffffffffffffff168152602001908152602001600020549081150290604051600060405180830381858888f19350505050905060008060003373ffffffffffffffffffffffffffffffffffffffff1673ffffffffffffffffffffffffffffffffffffffff1681526020019081526020016000208190555050565b346000803373ffffffffffffffffffffffffffffffffffffffff1673ffffffffffffffffffffffffffffffffffffffff16815260200190815260200160002060008282546101bb9190610230565b92505081905550565b6000813590506101d3816102f6565b92915050565b6000602082840312156101ef576101ee6102f1565b5b60006101fd848285016101c4565b91505092915050565b61020f816102b8565b82525050565b600060208201905061022a6000830184610206565b92915050565b600061023b826102b8565b9150610246836102b8565b9250827fffffffffffffffffffffffffffffffffffffffffffffffffffffffffffffffff0382111561027b5761027a6102c2565b5b828201905092915050565b600061029182610298565b9050919050565b600073ffffffffffffffffffffffffffffffffffffffff82169050919050565b6000819050919050565b7f4e487b7100000000000000000000000000000000000000000000000000000000600052601160045260246000fd5b600080fd5b6102ff81610286565b811461030a57600080fd5b5056fea26469706673582212206b344c3dfd548a8bb12065e368b62cb762dad29bd71883a405649dd674b2d67864736f6c63430008050033",
  "immutableReferences": {},
  "source": "// SPDX-License-Identifier: MIT\npragma solidity 0.8.5;\n\ncontract MyContract {\n\n  mapping (address=>uint) public balances;\n\n  function deposit() public payable\n  {\n    balances[msg.sender] += msg.value;\n  }\n\n  function retrieveTokens() public\n  {\n    bool sent = payable(msg.sender).send(balances[msg.sender]);\n    balances[msg.sender] = 0;\n  }\n}",
  "sourcePath": "/home/turupawn/Projects/Talks/MyStorage/contracts/MyContract.sol",
  "compiler": {
    "name": "solc",
    "version": "0.8.5+commit.a4f2e591.Emscripten.clang"
  },
  "schemaVersion": "3.4.1",
  "updatedAt": "2021-07-15T00:08:27.545Z",
  "networkType": "ethereum",
  "devdoc": {
    "kind": "dev",
    "methods": {},
    "version": 1
  },
  "userdoc": {
    "kind": "user",
    "methods": {},
    "version": 1
  }
}